{
  "contractName": "MasterShepherd",
  "abi": [
    {
      "inputs": [
        {
          "internalType": "contract LlamaToken",
          "name": "_lama",
          "type": "address"
        },
        {
          "internalType": "address",
          "name": "_devaddr",
          "type": "address"
        },
        {
          "internalType": "address",
          "name": "_feeAddress",
          "type": "address"
        },
        {
          "internalType": "uint256",
          "name": "_lamaPerBlock",
          "type": "uint256"
        }
      ],
      "stateMutability": "nonpayable",
      "type": "constructor"
    },
    {
      "anonymous": false,
      "inputs": [
        {
          "indexed": true,
          "internalType": "address",
          "name": "user",
          "type": "address"
        },
        {
          "indexed": true,
          "internalType": "uint256",
          "name": "pid",
          "type": "uint256"
        },
        {
          "indexed": false,
          "internalType": "uint256",
          "name": "amount",
          "type": "uint256"
        }
      ],
      "name": "Deposit",
      "type": "event"
    },
    {
      "anonymous": false,
      "inputs": [
        {
          "indexed": true,
          "internalType": "address",
          "name": "user",
          "type": "address"
        },
        {
          "indexed": true,
          "internalType": "uint256",
          "name": "pid",
          "type": "uint256"
        },
        {
          "indexed": false,
          "internalType": "uint256",
          "name": "amount",
          "type": "uint256"
        }
      ],
      "name": "EmergencyWithdraw",
      "type": "event"
    },
    {
      "anonymous": false,
      "inputs": [
        {
          "indexed": true,
          "internalType": "address",
          "name": "previousOwner",
          "type": "address"
        },
        {
          "indexed": true,
          "internalType": "address",
          "name": "newOwner",
          "type": "address"
        }
      ],
      "name": "OwnershipTransferred",
      "type": "event"
    },
    {
      "anonymous": false,
      "inputs": [
        {
          "indexed": true,
          "internalType": "address",
          "name": "user",
          "type": "address"
        },
        {
          "indexed": true,
          "internalType": "uint256",
          "name": "pid",
          "type": "uint256"
        },
        {
          "indexed": false,
          "internalType": "uint256",
          "name": "amount",
          "type": "uint256"
        }
      ],
      "name": "Withdraw",
      "type": "event"
    },
    {
      "inputs": [],
      "name": "BONUS_MULTIPLIER",
      "outputs": [
        {
          "internalType": "uint256",
          "name": "",
          "type": "uint256"
        }
      ],
      "stateMutability": "view",
      "type": "function",
      "constant": true
    },
    {
      "inputs": [],
      "name": "MAX_DEPOSIT_FEE",
      "outputs": [
        {
          "internalType": "uint16",
          "name": "",
          "type": "uint16"
        }
      ],
      "stateMutability": "view",
      "type": "function",
      "constant": true
    },
    {
      "inputs": [],
      "name": "devaddr",
      "outputs": [
        {
          "internalType": "address",
          "name": "",
          "type": "address"
        }
      ],
      "stateMutability": "view",
      "type": "function",
      "constant": true
    },
    {
      "inputs": [],
      "name": "feeAddress",
      "outputs": [
        {
          "internalType": "address",
          "name": "",
          "type": "address"
        }
      ],
      "stateMutability": "view",
      "type": "function",
      "constant": true
    },
    {
      "inputs": [],
      "name": "lama",
      "outputs": [
        {
          "internalType": "contract LlamaToken",
          "name": "",
          "type": "address"
        }
      ],
      "stateMutability": "view",
      "type": "function",
      "constant": true
    },
    {
      "inputs": [],
      "name": "lamaPerBlock",
      "outputs": [
        {
          "internalType": "uint256",
          "name": "",
          "type": "uint256"
        }
      ],
      "stateMutability": "view",
      "type": "function",
      "constant": true
    },
    {
      "inputs": [],
      "name": "owner",
      "outputs": [
        {
          "internalType": "address",
          "name": "",
          "type": "address"
        }
      ],
      "stateMutability": "view",
      "type": "function",
      "constant": true
    },
    {
      "inputs": [
        {
          "internalType": "uint256",
          "name": "",
          "type": "uint256"
        }
      ],
      "name": "poolInfo",
      "outputs": [
        {
          "internalType": "contract IBEP20",
          "name": "lpToken",
          "type": "address"
        },
        {
          "internalType": "uint256",
          "name": "allocPoint",
          "type": "uint256"
        },
        {
          "internalType": "uint256",
          "name": "lastRewardBlock",
          "type": "uint256"
        },
        {
          "internalType": "uint256",
          "name": "accLamaPerShare",
          "type": "uint256"
        },
        {
          "internalType": "uint16",
          "name": "depositFeeBP",
          "type": "uint16"
        }
      ],
      "stateMutability": "view",
      "type": "function",
      "constant": true
    },
    {
      "inputs": [],
      "name": "renounceOwnership",
      "outputs": [],
      "stateMutability": "nonpayable",
      "type": "function"
    },
    {
      "inputs": [],
      "name": "startBlock",
      "outputs": [
        {
          "internalType": "uint256",
          "name": "",
          "type": "uint256"
        }
      ],
      "stateMutability": "view",
      "type": "function",
      "constant": true
    },
    {
      "inputs": [],
      "name": "totalAllocPoint",
      "outputs": [
        {
          "internalType": "uint256",
          "name": "",
          "type": "uint256"
        }
      ],
      "stateMutability": "view",
      "type": "function",
      "constant": true
    },
    {
      "inputs": [
        {
          "internalType": "address",
          "name": "newOwner",
          "type": "address"
        }
      ],
      "name": "transferOwnership",
      "outputs": [],
      "stateMutability": "nonpayable",
      "type": "function"
    },
    {
      "inputs": [
        {
          "internalType": "uint256",
          "name": "",
          "type": "uint256"
        },
        {
          "internalType": "address",
          "name": "",
          "type": "address"
        }
      ],
      "name": "userInfo",
      "outputs": [
        {
          "internalType": "uint256",
          "name": "amount",
          "type": "uint256"
        },
        {
          "internalType": "uint256",
          "name": "rewardDebt",
          "type": "uint256"
        }
      ],
      "stateMutability": "view",
      "type": "function",
      "constant": true
    },
    {
      "inputs": [],
      "name": "poolLength",
      "outputs": [
        {
          "internalType": "uint256",
          "name": "",
          "type": "uint256"
        }
      ],
      "stateMutability": "view",
      "type": "function",
      "constant": true
    },
    {
      "inputs": [
        {
          "internalType": "uint256",
          "name": "_startBlock",
          "type": "uint256"
        }
      ],
      "name": "setStartBlock",
      "outputs": [],
      "stateMutability": "nonpayable",
      "type": "function"
    },
    {
      "inputs": [
        {
          "internalType": "uint256",
          "name": "_allocPoint",
          "type": "uint256"
        },
        {
          "internalType": "contract IBEP20",
          "name": "_lpToken",
          "type": "address"
        },
        {
          "internalType": "uint16",
          "name": "_depositFeeBP",
          "type": "uint16"
        },
        {
          "internalType": "bool",
          "name": "_withUpdate",
          "type": "bool"
        }
      ],
      "name": "add",
      "outputs": [],
      "stateMutability": "nonpayable",
      "type": "function"
    },
    {
      "inputs": [
        {
          "internalType": "contract IBEP20",
          "name": "_lpToken",
          "type": "address"
        }
      ],
      "name": "checkPoolDuplicate",
      "outputs": [],
      "stateMutability": "view",
      "type": "function",
      "constant": true
    },
    {
      "inputs": [
        {
          "internalType": "uint256",
          "name": "_pid",
          "type": "uint256"
        },
        {
          "internalType": "uint256",
          "name": "_allocPoint",
          "type": "uint256"
        },
        {
          "internalType": "uint16",
          "name": "_depositFeeBP",
          "type": "uint16"
        },
        {
          "internalType": "bool",
          "name": "_withUpdate",
          "type": "bool"
        }
      ],
      "name": "set",
      "outputs": [],
      "stateMutability": "nonpayable",
      "type": "function"
    },
    {
      "inputs": [
        {
          "internalType": "uint256",
          "name": "_from",
          "type": "uint256"
        },
        {
          "internalType": "uint256",
          "name": "_to",
          "type": "uint256"
        }
      ],
      "name": "getMultiplier",
      "outputs": [
        {
          "internalType": "uint256",
          "name": "",
          "type": "uint256"
        }
      ],
      "stateMutability": "view",
      "type": "function",
      "constant": true
    },
    {
      "inputs": [
        {
          "internalType": "uint256",
          "name": "_pid",
          "type": "uint256"
        },
        {
          "internalType": "address",
          "name": "_user",
          "type": "address"
        }
      ],
      "name": "pendingLama",
      "outputs": [
        {
          "internalType": "uint256",
          "name": "",
          "type": "uint256"
        }
      ],
      "stateMutability": "view",
      "type": "function",
      "constant": true
    },
    {
      "inputs": [],
      "name": "massUpdatePools",
      "outputs": [],
      "stateMutability": "nonpayable",
      "type": "function"
    },
    {
      "inputs": [
        {
          "internalType": "uint256",
          "name": "_pid",
          "type": "uint256"
        }
      ],
      "name": "updatePool",
      "outputs": [],
      "stateMutability": "nonpayable",
      "type": "function"
    },
    {
      "inputs": [
        {
          "internalType": "uint256",
          "name": "_pid",
          "type": "uint256"
        },
        {
          "internalType": "uint256",
          "name": "_amount",
          "type": "uint256"
        }
      ],
      "name": "deposit",
      "outputs": [],
      "stateMutability": "nonpayable",
      "type": "function"
    },
    {
      "inputs": [
        {
          "internalType": "uint256",
          "name": "_pid",
          "type": "uint256"
        },
        {
          "internalType": "uint256",
          "name": "_amount",
          "type": "uint256"
        }
      ],
      "name": "withdraw",
      "outputs": [],
      "stateMutability": "nonpayable",
      "type": "function"
    },
    {
      "inputs": [
        {
          "internalType": "uint256",
          "name": "_pid",
          "type": "uint256"
        }
      ],
      "name": "emergencyWithdraw",
      "outputs": [],
      "stateMutability": "nonpayable",
      "type": "function"
    },
    {
      "inputs": [
        {
          "internalType": "uint256",
          "name": "_multiplierNumber",
          "type": "uint256"
        }
      ],
      "name": "updateBonusMultiplier",
      "outputs": [],
      "stateMutability": "nonpayable",
      "type": "function"
    },
    {
      "inputs": [
        {
          "internalType": "uint256",
          "name": "_lamaPerBlock",
          "type": "uint256"
        }
      ],
      "name": "updateLamaPerBlock",
      "outputs": [],
      "stateMutability": "nonpayable",
      "type": "function"
    },
    {
      "inputs": [
        {
          "internalType": "address",
          "name": "_devaddr",
          "type": "address"
        }
      ],
      "name": "setDevAddress",
      "outputs": [],
      "stateMutability": "nonpayable",
      "type": "function"
    },
    {
      "inputs": [
        {
          "internalType": "address",
          "name": "_feeAddress",
          "type": "address"
        }
      ],
      "name": "setFeeAddress",
      "outputs": [],
      "stateMutability": "nonpayable",
      "type": "function"
    }
  ],
  "bytecode": "0x608060405260016004556103e8600560006101000a81548161ffff021916908361ffff16021790555060006008553480156200003a57600080fd5b506040516200333038038062003330833981810160405260808110156200006057600080fd5b81019080805190602001909291908051906020019092919080519060200190929190805190602001909291905050506000620000a16200021360201b60201c565b9050806000806101000a81548173ffffffffffffffffffffffffffffffffffffffff021916908373ffffffffffffffffffffffffffffffffffffffff1602179055508073ffffffffffffffffffffffffffffffffffffffff16600073ffffffffffffffffffffffffffffffffffffffff167f8be0079c531659141344cd1fd0a4f28419497f9722a3daafe3b4186f6b6457e060405160405180910390a35083600160006101000a81548173ffffffffffffffffffffffffffffffffffffffff021916908373ffffffffffffffffffffffffffffffffffffffff16021790555082600260006101000a81548173ffffffffffffffffffffffffffffffffffffffff021916908373ffffffffffffffffffffffffffffffffffffffff16021790555081600560026101000a81548173ffffffffffffffffffffffffffffffffffffffff021916908373ffffffffffffffffffffffffffffffffffffffff16021790555080600381905550505050506200021b565b600033905090565b613105806200022b6000396000f3fe608060405234801561001057600080fd5b50600436106101cf5760003560e01c80638aa2855011610104578063d49e77cd116100a2578063e88dcd2111610071578063e88dcd2114610761578063f2fde38b1461078f578063f35e4a6e146107d3578063f6b907ef14610801576101cf565b8063d49e77cd1461066f578063d9638422146106a3578063e2bbb158146106f5578063e44c2ee61461072d576101cf565b806393f1a40b116100de57806393f1a40b14610572578063b5e69b17146105db578063c6d87dd514610609578063d0d41fe11461062b576101cf565b80638aa28550146104d45780638da5cb5b146104f25780638dbb1e3a14610526576101cf565b806351eb05a6116101715780636be3b0951161014b5780636be3b095146103bc578063715018a61461041e57806384e82a33146104285780638705fcd414610490576101cf565b806351eb05a6146103565780635312ea8e14610384578063630b5ba1146103b2576101cf565b8063322d0d4a116101ad578063322d0d4a1461028857806341275358146102cc578063441a3e701461030057806348cd4cb114610338576101cf565b8063081e3eda146101d45780631526fe27146101f257806317caf6f11461026a575b600080fd5b6101dc61081f565b6040518082815260200191505060405180910390f35b61021e6004803603602081101561020857600080fd5b810190808035906020019092919050505061082c565b604051808673ffffffffffffffffffffffffffffffffffffffff1681526020018581526020018481526020018381526020018261ffff1681526020019550505050505060405180910390f35b61027261089d565b6040518082815260200191505060405180910390f35b6102ca6004803603602081101561029e57600080fd5b81019080803573ffffffffffffffffffffffffffffffffffffffff1690602001909291905050506108a3565b005b6102d46109aa565b604051808273ffffffffffffffffffffffffffffffffffffffff16815260200191505060405180910390f35b6103366004803603604081101561031657600080fd5b8101908080359060200190929190803590602001909291905050506109d0565b005b610340610caa565b6040518082815260200191505060405180910390f35b6103826004803603602081101561036c57600080fd5b8101908080359060200190929190505050610cb0565b005b6103b06004803603602081101561039a57600080fd5b810190808035906020019092919050505061100b565b005b6103ba61113f565b005b610408600480360360408110156103d257600080fd5b8101908080359060200190929190803573ffffffffffffffffffffffffffffffffffffffff16906020019092919050505061116c565b6040518082815260200191505060405180910390f35b6104266113b2565b005b61048e6004803603608081101561043e57600080fd5b8101908080359060200190929190803573ffffffffffffffffffffffffffffffffffffffff169060200190929190803561ffff169060200190929190803515159060200190929190505050611538565b005b6104d2600480360360208110156104a657600080fd5b81019080803573ffffffffffffffffffffffffffffffffffffffff1690602001909291905050506117b9565b005b6104dc6118c0565b6040518082815260200191505060405180910390f35b6104fa6118c6565b604051808273ffffffffffffffffffffffffffffffffffffffff16815260200191505060405180910390f35b61055c6004803603604081101561053c57600080fd5b8101908080359060200190929190803590602001909291905050506118ef565b6040518082815260200191505060405180910390f35b6105be6004803603604081101561058857600080fd5b8101908080359060200190929190803573ffffffffffffffffffffffffffffffffffffffff169060200190929190505050611920565b604051808381526020018281526020019250505060405180910390f35b610607600480360360208110156105f157600080fd5b8101908080359060200190929190505050611951565b005b610611611a9a565b604051808261ffff16815260200191505060405180910390f35b61066d6004803603602081101561064157600080fd5b81019080803573ffffffffffffffffffffffffffffffffffffffff169060200190929190505050611aae565b005b610677611bb5565b604051808273ffffffffffffffffffffffffffffffffffffffff16815260200191505060405180910390f35b6106f3600480360360808110156106b957600080fd5b810190808035906020019092919080359060200190929190803561ffff169060200190929190803515159060200190929190505050611bdb565b005b61072b6004803603604081101561070b57600080fd5b810190808035906020019092919080359060200190929190505050611e4c565b005b610735612149565b604051808273ffffffffffffffffffffffffffffffffffffffff16815260200191505060405180910390f35b61078d6004803603602081101561077757600080fd5b810190808035906020019092919050505061216f565b005b6107d1600480360360208110156107a557600080fd5b81019080803573ffffffffffffffffffffffffffffffffffffffff169060200190929190505050612249565b005b6107ff600480360360208110156107e957600080fd5b810190808035906020019092919050505061231d565b005b610809612467565b6040518082815260200191505060405180910390f35b6000600680549050905090565b6006818154811061083957fe5b90600052602060002090600502016000915090508060000160009054906101000a900473ffffffffffffffffffffffffffffffffffffffff16908060010154908060020154908060030154908060040160009054906101000a900461ffff16905085565b60085481565b6000600680549050905060005b818110156109a5578273ffffffffffffffffffffffffffffffffffffffff16600682815481106108dc57fe5b906000526020600020906005020160000160009054906101000a900473ffffffffffffffffffffffffffffffffffffffff1673ffffffffffffffffffffffffffffffffffffffff161415610998576040517f08c379a00000000000000000000000000000000000000000000000000000000081526004018080602001828103825260128152602001807f6164643a206578697374696e6720706f6f6c000000000000000000000000000081525060200191505060405180910390fd5b80806001019150506108b0565b505050565b600560029054906101000a900473ffffffffffffffffffffffffffffffffffffffff1681565b816006805490508110610a4b576040517f08c379a000000000000000000000000000000000000000000000000000000000815260040180806020018281038252601a8152602001807f76616c6964617465506f6f6c3a20706f6f6c206578697374733f00000000000081525060200191505060405180910390fd5b600060068481548110610a5a57fe5b9060005260206000209060050201905060006007600086815260200190815260200160002060003373ffffffffffffffffffffffffffffffffffffffff1673ffffffffffffffffffffffffffffffffffffffff16815260200190815260200160002090508381600001541015610b38576040517f08c379a00000000000000000000000000000000000000000000000000000000081526004018080602001828103825260128152602001807f77697468647261773a206e6f7420676f6f64000000000000000000000000000081525060200191505060405180910390fd5b610b4185610cb0565b6000610b8b8260010154610b7d64e8d4a51000610b6f8760030154876000015461246d90919063ffffffff16565b6124f390919063ffffffff16565b61253d90919063ffffffff16565b90506000811115610ba157610ba03382612587565b5b6000851115610c1957610bc185836000015461253d90919063ffffffff16565b8260000181905550610c1833868560000160009054906101000a900473ffffffffffffffffffffffffffffffffffffffff1673ffffffffffffffffffffffffffffffffffffffff166128009092919063ffffffff16565b5b610c4b64e8d4a51000610c3d8560030154856000015461246d90919063ffffffff16565b6124f390919063ffffffff16565b8260010181905550853373ffffffffffffffffffffffffffffffffffffffff167ff279e6a1f5e320cca91135676d9cb6e44ca8a08c0b88342bcdb1144f6511b568876040518082815260200191505060405180910390a3505050505050565b60095481565b600060068281548110610cbf57fe5b9060005260206000209060050201905080600201544311610ce05750611008565b60008160000160009054906101000a900473ffffffffffffffffffffffffffffffffffffffff1673ffffffffffffffffffffffffffffffffffffffff166370a08231306040518263ffffffff1660e01b8152600401808273ffffffffffffffffffffffffffffffffffffffff16815260200191505060206040518083038186803b158015610d6d57600080fd5b505afa158015610d81573d6000803e3d6000fd5b505050506040513d6020811015610d9757600080fd5b810190808051906020019092919050505090506000811480610dbd575060008260010154145b15610dd2574382600201819055505050611008565b6000610de28360020154436118ef565b90506000610e25600854610e178660010154610e096003548761246d90919063ffffffff16565b61246d90919063ffffffff16565b6124f390919063ffffffff16565b9050600160009054906101000a900473ffffffffffffffffffffffffffffffffffffffff1673ffffffffffffffffffffffffffffffffffffffff166340c10f19600260009054906101000a900473ffffffffffffffffffffffffffffffffffffffff16610e9c600a856124f390919063ffffffff16565b6040518363ffffffff1660e01b8152600401808373ffffffffffffffffffffffffffffffffffffffff16815260200182815260200192505050600060405180830381600087803b158015610eef57600080fd5b505af1158015610f03573d6000803e3d6000fd5b50505050600160009054906101000a900473ffffffffffffffffffffffffffffffffffffffff1673ffffffffffffffffffffffffffffffffffffffff166340c10f1930836040518363ffffffff1660e01b8152600401808373ffffffffffffffffffffffffffffffffffffffff16815260200182815260200192505050600060405180830381600087803b158015610f9a57600080fd5b505af1158015610fae573d6000803e3d6000fd5b50505050610ff2610fdf84610fd164e8d4a510008561246d90919063ffffffff16565b6124f390919063ffffffff16565b85600301546128a290919063ffffffff16565b8460030181905550438460020181905550505050505b50565b60006006828154811061101a57fe5b9060005260206000209060050201905060006007600084815260200190815260200160002060003373ffffffffffffffffffffffffffffffffffffffff1673ffffffffffffffffffffffffffffffffffffffff168152602001908152602001600020905060008160000154905060008260000181905550600082600101819055506110ea33828560000160009054906101000a900473ffffffffffffffffffffffffffffffffffffffff1673ffffffffffffffffffffffffffffffffffffffff166128009092919063ffffffff16565b833373ffffffffffffffffffffffffffffffffffffffff167fbb757047c2b5f3974fe26b7c10f732e7bce710b0952a71082702781e62ae0595836040518082815260200191505060405180910390a350505050565b6000600680549050905060005b818110156111685761115d81610cb0565b80600101905061114c565b5050565b6000806006848154811061117c57fe5b9060005260206000209060050201905060006007600086815260200190815260200160002060008573ffffffffffffffffffffffffffffffffffffffff1673ffffffffffffffffffffffffffffffffffffffff168152602001908152602001600020905060008260030154905060008360000160009054906101000a900473ffffffffffffffffffffffffffffffffffffffff1673ffffffffffffffffffffffffffffffffffffffff166370a08231306040518263ffffffff1660e01b8152600401808273ffffffffffffffffffffffffffffffffffffffff16815260200191505060206040518083038186803b15801561127657600080fd5b505afa15801561128a573d6000803e3d6000fd5b505050506040513d60208110156112a057600080fd5b810190808051906020019092919050505090508360020154431180156112c7575060008114155b156113625760006112dc8560020154436118ef565b9050600061131f60085461131188600101546113036003548761246d90919063ffffffff16565b61246d90919063ffffffff16565b6124f390919063ffffffff16565b905061135d61134e8461134064e8d4a510008561246d90919063ffffffff16565b6124f390919063ffffffff16565b856128a290919063ffffffff16565b935050505b6113a6836001015461139864e8d4a5100061138a86886000015461246d90919063ffffffff16565b6124f390919063ffffffff16565b61253d90919063ffffffff16565b94505050505092915050565b6113ba61292a565b73ffffffffffffffffffffffffffffffffffffffff1660008054906101000a900473ffffffffffffffffffffffffffffffffffffffff1673ffffffffffffffffffffffffffffffffffffffff161461147a576040517f08c379a00000000000000000000000000000000000000000000000000000000081526004018080602001828103825260208152602001807f4f776e61626c653a2063616c6c6572206973206e6f7420746865206f776e657281525060200191505060405180910390fd5b600073ffffffffffffffffffffffffffffffffffffffff1660008054906101000a900473ffffffffffffffffffffffffffffffffffffffff1673ffffffffffffffffffffffffffffffffffffffff167f8be0079c531659141344cd1fd0a4f28419497f9722a3daafe3b4186f6b6457e060405160405180910390a360008060006101000a81548173ffffffffffffffffffffffffffffffffffffffff021916908373ffffffffffffffffffffffffffffffffffffffff160217905550565b61154061292a565b73ffffffffffffffffffffffffffffffffffffffff1660008054906101000a900473ffffffffffffffffffffffffffffffffffffffff1673ffffffffffffffffffffffffffffffffffffffff1614611600576040517f08c379a00000000000000000000000000000000000000000000000000000000081526004018080602001828103825260208152602001807f4f776e61626c653a2063616c6c6572206973206e6f7420746865206f776e657281525060200191505060405180910390fd5b600560009054906101000a900461ffff1661ffff168261ffff161115611671576040517f08c379a00000000000000000000000000000000000000000000000000000000081526004018080602001828103825260258152602001806130156025913960400191505060405180910390fd5b80156116805761167f61113f565b5b611689836108a3565b6000600954431161169c5760095461169e565b435b90506116b5856008546128a290919063ffffffff16565b60088190555060066040518060a001604052808673ffffffffffffffffffffffffffffffffffffffff168152602001878152602001838152602001600081526020018561ffff16815250908060018154018082558091505060019003906000526020600020906005020160009091909190915060008201518160000160006101000a81548173ffffffffffffffffffffffffffffffffffffffff021916908373ffffffffffffffffffffffffffffffffffffffff16021790555060208201518160010155604082015181600201556060820151816003015560808201518160040160006101000a81548161ffff021916908361ffff16021790555050505050505050565b600560029054906101000a900473ffffffffffffffffffffffffffffffffffffffff1673ffffffffffffffffffffffffffffffffffffffff163373ffffffffffffffffffffffffffffffffffffffff161461187c576040517f08c379a00000000000000000000000000000000000000000000000000000000081526004018080602001828103825260188152602001807f736574466565416464726573733a20464f5242494444454e000000000000000081525060200191505060405180910390fd5b80600560026101000a81548173ffffffffffffffffffffffffffffffffffffffff021916908373ffffffffffffffffffffffffffffffffffffffff16021790555050565b60045481565b60008060009054906101000a900473ffffffffffffffffffffffffffffffffffffffff16905090565b600061191860045461190a858561253d90919063ffffffff16565b61246d90919063ffffffff16565b905092915050565b6007602052816000526040600020602052806000526040600020600091509150508060000154908060010154905082565b61195961292a565b73ffffffffffffffffffffffffffffffffffffffff1660008054906101000a900473ffffffffffffffffffffffffffffffffffffffff1673ffffffffffffffffffffffffffffffffffffffff1614611a19576040517f08c379a00000000000000000000000000000000000000000000000000000000081526004018080602001828103825260208152602001807f4f776e61626c653a2063616c6c6572206973206e6f7420746865206f776e657281525060200191505060405180910390fd5b6003811115611a90576040517f08c379a00000000000000000000000000000000000000000000000000000000081526004018080602001828103825260148152602001807f63616e2774206265206d6f7265207468616e203300000000000000000000000081525060200191505060405180910390fd5b8060048190555050565b600560009054906101000a900461ffff1681565b600260009054906101000a900473ffffffffffffffffffffffffffffffffffffffff1673ffffffffffffffffffffffffffffffffffffffff163373ffffffffffffffffffffffffffffffffffffffff1614611b71576040517f08c379a00000000000000000000000000000000000000000000000000000000081526004018080602001828103825260098152602001807f6465763a207775743f000000000000000000000000000000000000000000000081525060200191505060405180910390fd5b80600260006101000a81548173ffffffffffffffffffffffffffffffffffffffff021916908373ffffffffffffffffffffffffffffffffffffffff16021790555050565b600260009054906101000a900473ffffffffffffffffffffffffffffffffffffffff1681565b611be361292a565b73ffffffffffffffffffffffffffffffffffffffff1660008054906101000a900473ffffffffffffffffffffffffffffffffffffffff1673ffffffffffffffffffffffffffffffffffffffff1614611ca3576040517f08c379a00000000000000000000000000000000000000000000000000000000081526004018080602001828103825260208152602001807f4f776e61626c653a2063616c6c6572206973206e6f7420746865206f776e657281525060200191505060405180910390fd5b836006805490508110611d1e576040517f08c379a000000000000000000000000000000000000000000000000000000000815260040180806020018281038252601a8152602001807f76616c6964617465506f6f6c3a20706f6f6c206578697374733f00000000000081525060200191505060405180910390fd5b600560009054906101000a900461ffff1661ffff168361ffff161115611d8f576040517f08c379a00000000000000000000000000000000000000000000000000000000081526004018080602001828103825260258152602001806130ab6025913960400191505060405180910390fd5b8115611d9e57611d9d61113f565b5b611de384611dd560068881548110611db257fe5b90600052602060002090600502016001015460085461253d90919063ffffffff16565b6128a290919063ffffffff16565b6008819055508360068681548110611df757fe5b9060005260206000209060050201600101819055508260068681548110611e1a57fe5b906000526020600020906005020160040160006101000a81548161ffff021916908361ffff1602179055505050505050565b600060068381548110611e5b57fe5b9060005260206000209060050201905060006007600085815260200190815260200160002060003373ffffffffffffffffffffffffffffffffffffffff1673ffffffffffffffffffffffffffffffffffffffff1681526020019081526020016000209050611ec884610cb0565b600081600001541115611f37576000611f1f8260010154611f1164e8d4a51000611f038760030154876000015461246d90919063ffffffff16565b6124f390919063ffffffff16565b61253d90919063ffffffff16565b90506000811115611f3557611f343382612587565b5b505b60008311156120ba57611f913330858560000160009054906101000a900473ffffffffffffffffffffffffffffffffffffffff1673ffffffffffffffffffffffffffffffffffffffff16612932909392919063ffffffff16565b60008260040160009054906101000a900461ffff1661ffff161115612099576000611fef612710611fe18560040160009054906101000a900461ffff1661ffff168761246d90919063ffffffff16565b6124f390919063ffffffff16565b9050612062600560029054906101000a900473ffffffffffffffffffffffffffffffffffffffff16828560000160009054906101000a900473ffffffffffffffffffffffffffffffffffffffff1673ffffffffffffffffffffffffffffffffffffffff166128009092919063ffffffff16565b61208b8161207d8685600001546128a290919063ffffffff16565b61253d90919063ffffffff16565b8260000181905550506120b9565b6120b08382600001546128a290919063ffffffff16565b81600001819055505b5b6120ec64e8d4a510006120de8460030154846000015461246d90919063ffffffff16565b6124f390919063ffffffff16565b8160010181905550833373ffffffffffffffffffffffffffffffffffffffff167f90890809c654f11d6e72a28fa60149770a0d11ec6c92319d6ceb2bb0a4ea1a15856040518082815260200191505060405180910390a350505050565b600160009054906101000a900473ffffffffffffffffffffffffffffffffffffffff1681565b61217761292a565b73ffffffffffffffffffffffffffffffffffffffff1660008054906101000a900473ffffffffffffffffffffffffffffffffffffffff1673ffffffffffffffffffffffffffffffffffffffff1614612237576040517f08c379a00000000000000000000000000000000000000000000000000000000081526004018080602001828103825260208152602001807f4f776e61626c653a2063616c6c6572206973206e6f7420746865206f776e657281525060200191505060405180910390fd5b61223f61113f565b8060038190555050565b61225161292a565b73ffffffffffffffffffffffffffffffffffffffff1660008054906101000a900473ffffffffffffffffffffffffffffffffffffffff1673ffffffffffffffffffffffffffffffffffffffff1614612311576040517f08c379a00000000000000000000000000000000000000000000000000000000081526004018080602001828103825260208152602001807f4f776e61626c653a2063616c6c6572206973206e6f7420746865206f776e657281525060200191505060405180910390fd5b61231a816129f3565b50565b61232561292a565b73ffffffffffffffffffffffffffffffffffffffff1660008054906101000a900473ffffffffffffffffffffffffffffffffffffffff1673ffffffffffffffffffffffffffffffffffffffff16146123e5576040517f08c379a00000000000000000000000000000000000000000000000000000000081526004018080602001828103825260208152602001807f4f776e61626c653a2063616c6c6572206973206e6f7420746865206f776e657281525060200191505060405180910390fd5b60006009541461245d576040517f08c379a000000000000000000000000000000000000000000000000000000000815260040180806020018281038252600f8152602001807f616c72656164792073746172746564000000000000000000000000000000000081525060200191505060405180910390fd5b8060098190555050565b60035481565b60008083141561248057600090506124ed565b600082840290508284828161249157fe5b04146124e8576040517f08c379a000000000000000000000000000000000000000000000000000000000815260040180806020018281038252602181526020018061308a6021913960400191505060405180910390fd5b809150505b92915050565b600061253583836040518060400160405280601a81526020017f536166654d6174683a206469766973696f6e206279207a65726f000000000000815250612b36565b905092915050565b600061257f83836040518060400160405280601e81526020017f536166654d6174683a207375627472616374696f6e206f766572666c6f770000815250612bfc565b905092915050565b6000600160009054906101000a900473ffffffffffffffffffffffffffffffffffffffff1673ffffffffffffffffffffffffffffffffffffffff166370a08231306040518263ffffffff1660e01b8152600401808273ffffffffffffffffffffffffffffffffffffffff16815260200191505060206040518083038186803b15801561261257600080fd5b505afa158015612626573d6000803e3d6000fd5b505050506040513d602081101561263c57600080fd5b810190808051906020019092919050505090508082111561272b57600160009054906101000a900473ffffffffffffffffffffffffffffffffffffffff1673ffffffffffffffffffffffffffffffffffffffff1663a9059cbb84836040518363ffffffff1660e01b8152600401808373ffffffffffffffffffffffffffffffffffffffff16815260200182815260200192505050602060405180830381600087803b1580156126ea57600080fd5b505af11580156126fe573d6000803e3d6000fd5b505050506040513d602081101561271457600080fd5b8101908080519060200190929190505050506127fb565b600160009054906101000a900473ffffffffffffffffffffffffffffffffffffffff1673ffffffffffffffffffffffffffffffffffffffff1663a9059cbb84846040518363ffffffff1660e01b8152600401808373ffffffffffffffffffffffffffffffffffffffff16815260200182815260200192505050602060405180830381600087803b1580156127be57600080fd5b505af11580156127d2573d6000803e3d6000fd5b505050506040513d60208110156127e857600080fd5b8101908080519060200190929190505050505b505050565b61289d8363a9059cbb60e01b8484604051602401808373ffffffffffffffffffffffffffffffffffffffff16815260200182815260200192505050604051602081830303815290604052907bffffffffffffffffffffffffffffffffffffffffffffffffffffffff19166020820180517bffffffffffffffffffffffffffffffffffffffffffffffffffffffff8381831617835250505050612cbc565b505050565b600080828401905083811015612920576040517f08c379a000000000000000000000000000000000000000000000000000000000815260040180806020018281038252601b8152602001807f536166654d6174683a206164646974696f6e206f766572666c6f77000000000081525060200191505060405180910390fd5b8091505092915050565b600033905090565b6129ed846323b872dd60e01b858585604051602401808473ffffffffffffffffffffffffffffffffffffffff1681526020018373ffffffffffffffffffffffffffffffffffffffff1681526020018281526020019350505050604051602081830303815290604052907bffffffffffffffffffffffffffffffffffffffffffffffffffffffff19166020820180517bffffffffffffffffffffffffffffffffffffffffffffffffffffffff8381831617835250505050612cbc565b50505050565b600073ffffffffffffffffffffffffffffffffffffffff168173ffffffffffffffffffffffffffffffffffffffff161415612a79576040517f08c379a00000000000000000000000000000000000000000000000000000000081526004018080602001828103825260268152602001806130646026913960400191505060405180910390fd5b8073ffffffffffffffffffffffffffffffffffffffff1660008054906101000a900473ffffffffffffffffffffffffffffffffffffffff1673ffffffffffffffffffffffffffffffffffffffff167f8be0079c531659141344cd1fd0a4f28419497f9722a3daafe3b4186f6b6457e060405160405180910390a3806000806101000a81548173ffffffffffffffffffffffffffffffffffffffff021916908373ffffffffffffffffffffffffffffffffffffffff16021790555050565b60008083118290612be2576040517f08c379a00000000000000000000000000000000000000000000000000000000081526004018080602001828103825283818151815260200191508051906020019080838360005b83811015612ba7578082015181840152602081019050612b8c565b50505050905090810190601f168015612bd45780820380516001836020036101000a031916815260200191505b509250505060405180910390fd5b506000838581612bee57fe5b049050809150509392505050565b6000838311158290612ca9576040517f08c379a00000000000000000000000000000000000000000000000000000000081526004018080602001828103825283818151815260200191508051906020019080838360005b83811015612c6e578082015181840152602081019050612c53565b50505050905090810190601f168015612c9b5780820380516001836020036101000a031916815260200191505b509250505060405180910390fd5b5060008385039050809150509392505050565b6060612d1e826040518060400160405280602081526020017f5361666542455032303a206c6f772d6c6576656c2063616c6c206661696c65648152508573ffffffffffffffffffffffffffffffffffffffff16612dab9092919063ffffffff16565b9050600081511115612da657808060200190516020811015612d3f57600080fd5b8101908080519060200190929190505050612da5576040517f08c379a000000000000000000000000000000000000000000000000000000000815260040180806020018281038252602a81526020018061303a602a913960400191505060405180910390fd5b5b505050565b6060612dba8484600085612dc3565b90509392505050565b6060612dce85612fc9565b612e40576040517f08c379a000000000000000000000000000000000000000000000000000000000815260040180806020018281038252601d8152602001807f416464726573733a2063616c6c20746f206e6f6e2d636f6e747261637400000081525060200191505060405180910390fd5b600060608673ffffffffffffffffffffffffffffffffffffffff1685876040518082805190602001908083835b60208310612e905780518252602082019150602081019050602083039250612e6d565b6001836020036101000a03801982511681845116808217855250505050505090500191505060006040518083038185875af1925050503d8060008114612ef2576040519150601f19603f3d011682016040523d82523d6000602084013e612ef7565b606091505b50915091508115612f0c578092505050612fc1565b600081511115612f1f5780518082602001fd5b836040517f08c379a00000000000000000000000000000000000000000000000000000000081526004018080602001828103825283818151815260200191508051906020019080838360005b83811015612f86578082015181840152602081019050612f6b565b50505050905090810190601f168015612fb35780820380516001836020036101000a031916815260200191505b509250505060405180910390fd5b949350505050565b60008060007fc5d2460186f7233c927e7db2dcc703c0e500b653ca82273b7bfad8045d85a47060001b9050833f915080821415801561300b57506000801b8214155b9250505091905056fe6164643a20696e76616c6964206465706f7369742066656520626173697320706f696e74735361666542455032303a204245503230206f7065726174696f6e20646964206e6f7420737563636565644f776e61626c653a206e6577206f776e657220697320746865207a65726f2061646472657373536166654d6174683a206d756c7469706c69636174696f6e206f766572666c6f777365743a20696e76616c6964206465706f7369742066656520626173697320706f696e7473a26469706673582212204d552fbb1c93a489300a5c33c3ca40e0d5c8920d815ef0671943ad9cf24d06dc64736f6c634300060c0033",
  "immutableReferences": {},
  "source": "// SPDX-License-Identifier: WTFPL License\r\npragma solidity 0.6.12;\r\n\r\nimport '../node_modules/@pancakeswap/pancake-swap-lib/contracts/math/SafeMath.sol';\r\nimport '../node_modules/@pancakeswap/pancake-swap-lib/contracts/token/BEP20/IBEP20.sol';\r\nimport '../node_modules/@pancakeswap/pancake-swap-lib/contracts/token/BEP20/SafeBEP20.sol';\r\nimport '../node_modules/@pancakeswap/pancake-swap-lib/contracts/access/Ownable.sol';\r\n\r\nimport \"./LlamaToken.sol\";\r\n\r\n//\r\n// Note that it's ownable and the owner wields tremendous power. The ownership\r\n// will be transferred to a governance smart contract once LAMA is sufficiently\r\n// distributed and the community can show to govern itself.\r\n//\r\ncontract MasterShepherd is Ownable {\r\n    using SafeMath for uint256;\r\n    using SafeBEP20 for IBEP20;\r\n\r\n    // Info of each user.\r\n    struct UserInfo {\r\n        uint256 amount;     // How many LP tokens the user has provided.\r\n        uint256 rewardDebt; // Reward debt. See explanation below.\r\n        //\r\n        // We do some fancy math here. Basically, any point in time, the amount of LAMAs\r\n        // entitled to a user but is pending to be distributed is:\r\n        //\r\n        //   pending reward = (user.amount * pool.accLamaPerShare) - user.rewardDebt\r\n        //\r\n        // Whenever a user deposits or withdraws LP tokens to a pool. Here's what happens:\r\n        //   1. The pool's `accLamaPerShare` (and `lastRewardBlock`) gets updated.\r\n        //   2. User receives the pending reward sent to his/her address.\r\n        //   3. User's `amount` gets updated.\r\n        //   4. User's `rewardDebt` gets updated.\r\n    }\r\n\r\n    // Info of each pool.\r\n    struct PoolInfo {\r\n        IBEP20 lpToken;           // Address of LP token contract.\r\n        uint256 allocPoint;       // How many allocation points assigned to this pool. LAMAs to distribute per block.\r\n        uint256 lastRewardBlock;  // Last block number that LAMAs distribution occurs.\r\n        uint256 accLamaPerShare;   // Accumulated LAMAs per share, times 1e12. See below.\r\n        uint16 depositFeeBP;      // Deposit fee in basis points\r\n    }\r\n\r\n    // The LAMA TOKEN\r\n    LlamaToken public lama;    \r\n    // Dev address.\r\n    address public devaddr;\r\n    // LAMA tokens created per block.\r\n    uint256 public lamaPerBlock;\r\n    // Bonus muliplier for early lama makers.\r\n    uint256 public BONUS_MULTIPLIER = 1;\r\n    // The maximum deposit fee allowed is 10%\r\n    uint16 public MAX_DEPOSIT_FEE = 1000;\r\n    // Deposit Fee address\r\n    address public feeAddress;\r\n\r\n    // Info of each pool.\r\n    PoolInfo[] public poolInfo;\r\n    // Info of each user that stakes LP tokens.\r\n    mapping (uint256 => mapping (address => UserInfo)) public userInfo;\r\n    // Total allocation points. Must be the sum of all allocation points in all pools.\r\n    uint256 public totalAllocPoint = 0;\r\n    // The block number when LAMA mining starts.\r\n    uint256 public startBlock;\r\n\r\n    event Deposit(address indexed user, uint256 indexed pid, uint256 amount);\r\n    event Withdraw(address indexed user, uint256 indexed pid, uint256 amount);\r\n    event EmergencyWithdraw(address indexed user, uint256 indexed pid, uint256 amount);\r\n\r\n    constructor(\r\n        LlamaToken _lama,        \r\n        address _devaddr,\r\n        address _feeAddress,\r\n        uint256 _lamaPerBlock       \r\n    ) public {\r\n        lama = _lama;\r\n        devaddr = _devaddr;\r\n        feeAddress = _feeAddress;\r\n        lamaPerBlock = _lamaPerBlock;                \r\n    }\r\n    \r\n    function poolLength() external view returns (uint256) {\r\n        return poolInfo.length;\r\n    }\r\n\r\n    function setStartBlock(uint256 _startBlock) public onlyOwner {\r\n        require(startBlock == 0, \"already started\");\r\n        startBlock = _startBlock;\r\n    }\r\n\r\n    // Add a new lp to the pool. Can only be called by the owner.\r\n    // XXX Adding the same LP token more than once is not allowed.\r\n    function add(uint256 _allocPoint, IBEP20 _lpToken,  uint16 _depositFeeBP, bool _withUpdate) public onlyOwner {\r\n        require(_depositFeeBP <= MAX_DEPOSIT_FEE, \"add: invalid deposit fee basis points\");\r\n        if (_withUpdate) {\r\n            massUpdatePools();\r\n        }\r\n        checkPoolDuplicate(_lpToken);\r\n        uint256 lastRewardBlock = block.number > startBlock ? block.number : startBlock;\r\n        totalAllocPoint = totalAllocPoint.add(_allocPoint);\r\n        poolInfo.push(PoolInfo({\r\n            lpToken: _lpToken,\r\n            allocPoint: _allocPoint,\r\n            lastRewardBlock: lastRewardBlock,\r\n            accLamaPerShare: 0,\r\n            depositFeeBP: _depositFeeBP\r\n        }));        \r\n    }\r\n\r\n    // Detects whether the given pool already exists\r\n    function checkPoolDuplicate(IBEP20 _lpToken) public view {\r\n        uint256 length = poolInfo.length;\r\n        for (uint256 _pid = 0; _pid < length; _pid++) {\r\n            require(poolInfo[_pid].lpToken != _lpToken, \"add: existing pool\");\r\n        }\r\n    }\r\n\r\n    // Update the given pool's LAMA allocation point and deposit fee. Can only be called by the owner.\r\n    function set(uint256 _pid, uint256 _allocPoint, uint16 _depositFeeBP, bool _withUpdate) public onlyOwner validatePool(_pid) {\r\n        require(_depositFeeBP <= MAX_DEPOSIT_FEE, \"set: invalid deposit fee basis points\");\r\n        if (_withUpdate) {\r\n            massUpdatePools();\r\n        }       \r\n        totalAllocPoint = totalAllocPoint.sub(poolInfo[_pid].allocPoint).add(_allocPoint);\r\n        poolInfo[_pid].allocPoint = _allocPoint;\r\n        poolInfo[_pid].depositFeeBP = _depositFeeBP;\r\n    }\r\n        \r\n    // Return reward multiplier over the given _from to _to block.\r\n    function getMultiplier(uint256 _from, uint256 _to) public view returns (uint256) {\r\n        return _to.sub(_from).mul(BONUS_MULTIPLIER);\r\n    }\r\n        \r\n    // View function to see pending LAMAs on frontend.\r\n    function pendingLama(uint256 _pid, address _user) external view returns (uint256) {\r\n        PoolInfo storage pool = poolInfo[_pid];\r\n        UserInfo storage user = userInfo[_pid][_user];\r\n        uint256 accLamaPerShare = pool.accLamaPerShare;\r\n        uint256 lpSupply = pool.lpToken.balanceOf(address(this));\r\n        if (block.number > pool.lastRewardBlock && lpSupply != 0) {\r\n            uint256 multiplier = getMultiplier(pool.lastRewardBlock, block.number);\r\n            uint256 lamaReward = multiplier.mul(lamaPerBlock).mul(pool.allocPoint).div(totalAllocPoint);\r\n            accLamaPerShare = accLamaPerShare.add(lamaReward.mul(1e12).div(lpSupply));\r\n        }\r\n        return user.amount.mul(accLamaPerShare).div(1e12).sub(user.rewardDebt);\r\n    }\r\n\r\n    // Update reward variables for all pools. Be careful of gas spending!\r\n    function massUpdatePools() public {\r\n        uint256 length = poolInfo.length;\r\n        for (uint256 pid = 0; pid < length; ++pid) {\r\n            updatePool(pid);\r\n        }\r\n    }\r\n\r\n\r\n    // Update reward variables of the given pool to be up-to-date.\r\n    function updatePool(uint256 _pid) public {\r\n        PoolInfo storage pool = poolInfo[_pid];\r\n        if (block.number <= pool.lastRewardBlock) {\r\n            return;\r\n        }\r\n        uint256 lpSupply = pool.lpToken.balanceOf(address(this));\r\n        if (lpSupply == 0 || pool.allocPoint == 0) {\r\n            pool.lastRewardBlock = block.number;\r\n            return;\r\n        }\r\n        uint256 multiplier = getMultiplier(pool.lastRewardBlock, block.number);\r\n        uint256 lamaReward = multiplier.mul(lamaPerBlock).mul(pool.allocPoint).div(totalAllocPoint);                \r\n        lama.mint(devaddr, lamaReward.div(10));\r\n        lama.mint(address(this), lamaReward);\r\n        pool.accLamaPerShare = pool.accLamaPerShare.add(lamaReward.mul(1e12).div(lpSupply));\r\n        pool.lastRewardBlock = block.number;\r\n    }\r\n\r\n    // Deposit LP tokens to MasterChef for LAMA allocation.\r\n    function deposit(uint256 _pid, uint256 _amount) public {        \r\n        PoolInfo storage pool = poolInfo[_pid];\r\n        UserInfo storage user = userInfo[_pid][msg.sender];\r\n        updatePool(_pid);\r\n\r\n        if (user.amount > 0) {\r\n            uint256 pending = user.amount.mul(pool.accLamaPerShare).div(1e12).sub(user.rewardDebt);\r\n            if(pending > 0) {\r\n                safeLamaTransfer(msg.sender, pending);\r\n            }\r\n        }\r\n        if (_amount > 0) {\r\n            pool.lpToken.safeTransferFrom(address(msg.sender), address(this), _amount);\r\n            if(pool.depositFeeBP > 0) {\r\n                uint256 depositFee = _amount.mul(pool.depositFeeBP).div(10000);\r\n                pool.lpToken.safeTransfer(feeAddress, depositFee);\r\n                user.amount = user.amount.add(_amount).sub(depositFee);\r\n            } else {\r\n                user.amount = user.amount.add(_amount);\r\n            }\r\n        }\r\n        user.rewardDebt = user.amount.mul(pool.accLamaPerShare).div(1e12);\r\n        emit Deposit(msg.sender, _pid, _amount);\r\n    }\r\n\r\n    // Withdraw LP tokens from MasterShepherd.\r\n    function withdraw(uint256 _pid, uint256 _amount) public validatePool(_pid) {       \r\n        PoolInfo storage pool = poolInfo[_pid];\r\n        UserInfo storage user = userInfo[_pid][msg.sender];\r\n        require(user.amount >= _amount, \"withdraw: not good\");\r\n        updatePool(_pid);\r\n        uint256 pending = user.amount.mul(pool.accLamaPerShare).div(1e12).sub(user.rewardDebt);\r\n        if(pending > 0) {\r\n            safeLamaTransfer(msg.sender, pending);\r\n        }\r\n        if(_amount > 0) {\r\n            user.amount = user.amount.sub(_amount);\r\n            pool.lpToken.safeTransfer(address(msg.sender), _amount);\r\n        }\r\n        user.rewardDebt = user.amount.mul(pool.accLamaPerShare).div(1e12);\r\n        emit Withdraw(msg.sender, _pid, _amount);\r\n    }\r\n    \r\n    // Withdraw without caring about rewards. EMERGENCY ONLY.\r\n    function emergencyWithdraw(uint256 _pid) public {\r\n        PoolInfo storage pool = poolInfo[_pid];\r\n        UserInfo storage user = userInfo[_pid][msg.sender];\r\n        uint256 amount = user.amount;\r\n        user.amount = 0;\r\n        user.rewardDebt = 0;\r\n        pool.lpToken.safeTransfer(address(msg.sender), amount);\r\n        emit EmergencyWithdraw(msg.sender, _pid, amount);\r\n    }\r\n\r\n    // Safe lama transfer function, just in case if rounding error causes pool to not have enough LAMAs.\r\n    function safeLamaTransfer(address _to, uint256 _amount) internal {\r\n        uint256 lamaBal = lama.balanceOf(address(this));\r\n        if (_amount > lamaBal) {\r\n            lama.transfer(_to, lamaBal);\r\n        } else {\r\n            lama.transfer(_to, _amount);\r\n        }\r\n    }\r\n    modifier validatePool(uint256 _pid) {\r\n        require(_pid < poolInfo.length, \"validatePool: pool exists?\");\r\n        _;\r\n    }\r\n\r\n    function updateBonusMultiplier(uint256 _multiplierNumber) external onlyOwner {\r\n        require( _multiplierNumber <= 3, \"can't be more than 3\" );\r\n        BONUS_MULTIPLIER = _multiplierNumber;\r\n    }\r\n    \r\n    function updateLamaPerBlock(uint256 _lamaPerBlock) external onlyOwner {        \r\n        massUpdatePools();\r\n        lamaPerBlock = _lamaPerBlock;\r\n    }\r\n                              \r\n    // Update dev address by the previous dev.\r\n    function setDevAddress(address _devaddr) public {\r\n        require(msg.sender == devaddr, \"dev: wut?\");\r\n        devaddr = _devaddr;\r\n    }\r\n\r\n    // Update fee address by the previous address\r\n    function setFeeAddress(address _feeAddress) public{\r\n        require(msg.sender == feeAddress, \"setFeeAddress: FORBIDDEN\");\r\n        feeAddress = _feeAddress;\r\n    }\r\n}",
  "sourcePath": "C:/TEMP/LLAMA/contracts/contracts/MasterShepherd.sol",
  "compiler": {
    "name": "solc",
    "version": "0.6.12+commit.27d51765.Emscripten.clang"
  },
  "schemaVersion": "3.3.4",
  "updatedAt": "2021-03-06T15:44:13.794Z",
  "networkType": "ethereum",
  "devdoc": {
    "kind": "dev",
    "methods": {
      "owner()": {
        "details": "Returns the address of the current owner."
      },
      "renounceOwnership()": {
        "details": "Leaves the contract without owner. It will not be possible to call `onlyOwner` functions anymore. Can only be called by the current owner. NOTE: Renouncing ownership will leave the contract without an owner, thereby removing any functionality that is only available to the owner."
      },
      "transferOwnership(address)": {
        "details": "Transfers ownership of the contract to a new account (`newOwner`). Can only be called by the current owner."
      }
    },
    "version": 1
  },
  "userdoc": {
    "kind": "user",
    "methods": {},
    "version": 1
  }
}